{
  "contractName": "MyToken",
  "abi": [
    {
      "inputs": [],
      "stateMutability": "nonpayable",
      "type": "constructor"
    },
    {
      "anonymous": false,
      "inputs": [
        {
          "indexed": true,
          "internalType": "address",
          "name": "owner",
          "type": "address"
        },
        {
          "indexed": true,
          "internalType": "address",
          "name": "spender",
          "type": "address"
        },
        {
          "indexed": false,
          "internalType": "uint256",
          "name": "value",
          "type": "uint256"
        }
      ],
      "name": "Approval",
      "type": "event"
    },
    {
      "anonymous": false,
      "inputs": [
        {
          "indexed": true,
          "internalType": "address",
          "name": "operator",
          "type": "address"
        },
        {
          "indexed": true,
          "internalType": "address",
          "name": "tokenHolder",
          "type": "address"
        }
      ],
      "name": "AuthorizedOperator",
      "type": "event"
    },
    {
      "anonymous": false,
      "inputs": [
        {
          "indexed": true,
          "internalType": "address",
          "name": "operator",
          "type": "address"
        },
        {
          "indexed": true,
          "internalType": "address",
          "name": "from",
          "type": "address"
        },
        {
          "indexed": false,
          "internalType": "uint256",
          "name": "amount",
          "type": "uint256"
        },
        {
          "indexed": false,
          "internalType": "bytes",
          "name": "data",
          "type": "bytes"
        },
        {
          "indexed": false,
          "internalType": "bytes",
          "name": "operatorData",
          "type": "bytes"
        }
      ],
      "name": "Burned",
      "type": "event"
    },
    {
      "anonymous": false,
      "inputs": [
        {
          "indexed": true,
          "internalType": "address",
          "name": "operator",
          "type": "address"
        },
        {
          "indexed": true,
          "internalType": "address",
          "name": "to",
          "type": "address"
        },
        {
          "indexed": false,
          "internalType": "uint256",
          "name": "amount",
          "type": "uint256"
        },
        {
          "indexed": false,
          "internalType": "bytes",
          "name": "data",
          "type": "bytes"
        },
        {
          "indexed": false,
          "internalType": "bytes",
          "name": "operatorData",
          "type": "bytes"
        }
      ],
      "name": "Minted",
      "type": "event"
    },
    {
      "anonymous": false,
      "inputs": [
        {
          "indexed": true,
          "internalType": "address",
          "name": "operator",
          "type": "address"
        },
        {
          "indexed": true,
          "internalType": "address",
          "name": "tokenHolder",
          "type": "address"
        }
      ],
      "name": "RevokedOperator",
      "type": "event"
    },
    {
      "anonymous": false,
      "inputs": [
        {
          "indexed": true,
          "internalType": "address",
          "name": "operator",
          "type": "address"
        },
        {
          "indexed": true,
          "internalType": "address",
          "name": "from",
          "type": "address"
        },
        {
          "indexed": true,
          "internalType": "address",
          "name": "to",
          "type": "address"
        },
        {
          "indexed": false,
          "internalType": "uint256",
          "name": "amount",
          "type": "uint256"
        },
        {
          "indexed": false,
          "internalType": "bytes",
          "name": "data",
          "type": "bytes"
        },
        {
          "indexed": false,
          "internalType": "bytes",
          "name": "operatorData",
          "type": "bytes"
        }
      ],
      "name": "Sent",
      "type": "event"
    },
    {
      "anonymous": false,
      "inputs": [
        {
          "indexed": true,
          "internalType": "address",
          "name": "from",
          "type": "address"
        },
        {
          "indexed": true,
          "internalType": "address",
          "name": "to",
          "type": "address"
        },
        {
          "indexed": false,
          "internalType": "uint256",
          "name": "value",
          "type": "uint256"
        }
      ],
      "name": "Transfer",
      "type": "event"
    },
    {
      "inputs": [
        {
          "internalType": "address",
          "name": "holder",
          "type": "address"
        },
        {
          "internalType": "address",
          "name": "spender",
          "type": "address"
        }
      ],
      "name": "allowance",
      "outputs": [
        {
          "internalType": "uint256",
          "name": "",
          "type": "uint256"
        }
      ],
      "stateMutability": "view",
      "type": "function",
      "constant": true
    },
    {
      "inputs": [
        {
          "internalType": "address",
          "name": "spender",
          "type": "address"
        },
        {
          "internalType": "uint256",
          "name": "value",
          "type": "uint256"
        }
      ],
      "name": "approve",
      "outputs": [
        {
          "internalType": "bool",
          "name": "",
          "type": "bool"
        }
      ],
      "stateMutability": "nonpayable",
      "type": "function"
    },
    {
      "inputs": [
        {
          "internalType": "address",
          "name": "operator",
          "type": "address"
        }
      ],
      "name": "authorizeOperator",
      "outputs": [],
      "stateMutability": "nonpayable",
      "type": "function"
    },
    {
      "inputs": [
        {
          "internalType": "address",
          "name": "tokenHolder",
          "type": "address"
        }
      ],
      "name": "balanceOf",
      "outputs": [
        {
          "internalType": "uint256",
          "name": "",
          "type": "uint256"
        }
      ],
      "stateMutability": "view",
      "type": "function",
      "constant": true
    },
    {
      "inputs": [
        {
          "internalType": "uint256",
          "name": "amount",
          "type": "uint256"
        },
        {
          "internalType": "bytes",
          "name": "data",
          "type": "bytes"
        }
      ],
      "name": "burn",
      "outputs": [],
      "stateMutability": "nonpayable",
      "type": "function"
    },
    {
      "inputs": [],
      "name": "decimals",
      "outputs": [
        {
          "internalType": "uint8",
          "name": "",
          "type": "uint8"
        }
      ],
      "stateMutability": "pure",
      "type": "function",
      "constant": true
    },
    {
      "inputs": [],
      "name": "defaultOperators",
      "outputs": [
        {
          "internalType": "address[]",
          "name": "",
          "type": "address[]"
        }
      ],
      "stateMutability": "view",
      "type": "function",
      "constant": true
    },
    {
      "inputs": [],
      "name": "granularity",
      "outputs": [
        {
          "internalType": "uint256",
          "name": "",
          "type": "uint256"
        }
      ],
      "stateMutability": "view",
      "type": "function",
      "constant": true
    },
    {
      "inputs": [
        {
          "internalType": "address",
          "name": "operator",
          "type": "address"
        },
        {
          "internalType": "address",
          "name": "tokenHolder",
          "type": "address"
        }
      ],
      "name": "isOperatorFor",
      "outputs": [
        {
          "internalType": "bool",
          "name": "",
          "type": "bool"
        }
      ],
      "stateMutability": "view",
      "type": "function",
      "constant": true
    },
    {
      "inputs": [],
      "name": "name",
      "outputs": [
        {
          "internalType": "string",
          "name": "",
          "type": "string"
        }
      ],
      "stateMutability": "view",
      "type": "function",
      "constant": true
    },
    {
      "inputs": [
        {
          "internalType": "address",
          "name": "account",
          "type": "address"
        },
        {
          "internalType": "uint256",
          "name": "amount",
          "type": "uint256"
        },
        {
          "internalType": "bytes",
          "name": "data",
          "type": "bytes"
        },
        {
          "internalType": "bytes",
          "name": "operatorData",
          "type": "bytes"
        }
      ],
      "name": "operatorBurn",
      "outputs": [],
      "stateMutability": "nonpayable",
      "type": "function"
    },
    {
      "inputs": [
        {
          "internalType": "address",
          "name": "sender",
          "type": "address"
        },
        {
          "internalType": "address",
          "name": "recipient",
          "type": "address"
        },
        {
          "internalType": "uint256",
          "name": "amount",
          "type": "uint256"
        },
        {
          "internalType": "bytes",
          "name": "data",
          "type": "bytes"
        },
        {
          "internalType": "bytes",
          "name": "operatorData",
          "type": "bytes"
        }
      ],
      "name": "operatorSend",
      "outputs": [],
      "stateMutability": "nonpayable",
      "type": "function"
    },
    {
      "inputs": [
        {
          "internalType": "address",
          "name": "operator",
          "type": "address"
        }
      ],
      "name": "revokeOperator",
      "outputs": [],
      "stateMutability": "nonpayable",
      "type": "function"
    },
    {
      "inputs": [
        {
          "internalType": "address",
          "name": "recipient",
          "type": "address"
        },
        {
          "internalType": "uint256",
          "name": "amount",
          "type": "uint256"
        },
        {
          "internalType": "bytes",
          "name": "data",
          "type": "bytes"
        }
      ],
      "name": "send",
      "outputs": [],
      "stateMutability": "nonpayable",
      "type": "function"
    },
    {
      "inputs": [],
      "name": "symbol",
      "outputs": [
        {
          "internalType": "string",
          "name": "",
          "type": "string"
        }
      ],
      "stateMutability": "view",
      "type": "function",
      "constant": true
    },
    {
      "inputs": [],
      "name": "totalSupply",
      "outputs": [
        {
          "internalType": "uint256",
          "name": "",
          "type": "uint256"
        }
      ],
      "stateMutability": "view",
      "type": "function",
      "constant": true
    },
    {
      "inputs": [
        {
          "internalType": "address",
          "name": "recipient",
          "type": "address"
        },
        {
          "internalType": "uint256",
          "name": "amount",
          "type": "uint256"
        }
      ],
      "name": "transfer",
      "outputs": [
        {
          "internalType": "bool",
          "name": "",
          "type": "bool"
        }
      ],
      "stateMutability": "nonpayable",
      "type": "function"
    },
    {
      "inputs": [
        {
          "internalType": "address",
          "name": "holder",
          "type": "address"
        },
        {
          "internalType": "address",
          "name": "recipient",
          "type": "address"
        },
        {
          "internalType": "uint256",
          "name": "amount",
          "type": "uint256"
        }
      ],
      "name": "transferFrom",
      "outputs": [
        {
          "internalType": "bool",
          "name": "",
          "type": "bool"
        }
      ],
      "stateMutability": "nonpayable",
      "type": "function"
    },
    {
      "inputs": [
        {
          "internalType": "uint256",
          "name": "amount",
          "type": "uint256"
        }
      ],
      "name": "swap",
      "outputs": [],
      "stateMutability": "nonpayable",
      "type": "function"
    },
    {
      "inputs": [
        {
          "internalType": "uint256",
          "name": "amount",
          "type": "uint256"
        }
      ],
      "name": "withdraw",
      "outputs": [],
      "stateMutability": "nonpayable",
      "type": "function"
    },
    {
      "inputs": [],
      "name": "withdrawAll",
      "outputs": [],
      "stateMutability": "nonpayable",
      "type": "function"
    },
    {
      "inputs": [
        {
          "internalType": "uint256",
          "name": "amount",
          "type": "uint256"
        }
      ],
      "name": "burnTokens",
      "outputs": [],
      "stateMutability": "nonpayable",
      "type": "function"
    },
    {
      "inputs": [],
      "name": "getBurnPrice",
      "outputs": [
        {
          "internalType": "uint256",
          "name": "",
          "type": "uint256"
        }
      ],
      "stateMutability": "view",
      "type": "function",
      "constant": true
    },
    {
      "inputs": [],
      "name": "getMintPrice",
      "outputs": [
        {
          "internalType": "uint256",
          "name": "",
          "type": "uint256"
        }
      ],
      "stateMutability": "view",
      "type": "function",
      "constant": true
    }
  ],
  "bytecode": "0x608060405260098054600160a060020a03191673fe4f5145f6e09952a5ba9e956ed0c25e3fa4c7f11790553480156200003757600080fd5b50604080518082018252600f81527f4d79546f6b656e56657273696f6e32000000000000000000000000000000000060208083019182528351808501909452600584527f4d545f56320000000000000000000000000000000000000000000000000000009084015281519192913091620000b59160029190620002c9565b508151620000cb906003906020850190620002c9565b5060048054600180820183557f8a35acfbc15ff81a39ae7d344fd709f28e8600b4aa8c65c6b64bfe7fe36bd19b9091018054600160a060020a031916600160a060020a03851690811790915560009081526005602052604090819020805460ff1916909217909155517f29965a1d000000000000000000000000000000000000000000000000000000008152309181018290527fac7fbab5f54a3ca8194167523c6753bfeb96a445279294b6125b68cce217705460248201526044810191909152731820a4b7618bde71dce8cdc73aab6c95905fad24906329965a1d90606401600060405180830381600087803b158015620001c657600080fd5b505af1158015620001db573d6000803e3d6000fd5b50506040517f29965a1d00000000000000000000000000000000000000000000000000000000815230600482018190527faea199e31a596269b42cdafd93407f14436db6e4cad65417994c2eb37381e05a60248301526044820152731820a4b7618bde71dce8cdc73aab6c95905fad2492506329965a1d9150606401600060405180830381600087803b1580156200027257600080fd5b505af115801562000287573d6000803e3d6000fd5b5050600a8054600160a060020a03199081163317909155600b805490911673d0d5e3db44de05e9f294bb0a3beeaf030de24ada17905550620003c59350505050565b828054620002d7906200036f565b90600052602060002090601f016020900481019282620002fb576000855562000346565b82601f106200031657805160ff191683800117855562000346565b8280016001018555821562000346579182015b828111156200034657825182559160200191906001019062000329565b506200035492915062000358565b5090565b5b8082111562000354576000815560010162000359565b6002810460018216806200038457607f821691505b60208210811415620003bf577f4e487b7100000000000000000000000000000000000000000000000000000000600052602260045260246000fd5b50919050565b61222380620003d56000396000f3fe608060405234801561001057600080fd5b506004361061015c5760003560e060020a90048063853828b6116100c7578063a9059cbb11610080578063a9059cbb146102af578063d95b6371146102c2578063dd62ed3e146102d5578063fad8b32a1461030e578063fc673c4f14610321578063fe9d93031461033457600080fd5b8063853828b61461025e57806394b918de14610266578063959b8c3f1461027957806395d89b411461028c5780639bd9bbc614610294578063a7f93ebd146102a757600080fd5b80632e1a7d4d116101195780632e1a7d4d146101e4578063313ce567146101f9578063556f0dc71461020857806362ad1b831461020f5780636d1b229d1461022257806370a082311461023557600080fd5b806306e485381461016157806306fdde031461017f578063095ea7b31461019457806318160ddd146101b757806323b872dd146101c95780632ae6218d146101dc575b600080fd5b610169610347565b6040516101769190611b1d565b60405180910390f35b6101876103a9565b6040516101769190611bb7565b6101a76101a2366004611bdf565b610432565b6040519015158152602001610176565b6001545b604051908152602001610176565b6101a76101d7366004611c0b565b61044a565b6101bb61059e565b6101f76101f2366004611c4c565b610611565b005b60405160128152602001610176565b60016101bb565b6101f761021d366004611d0b565b610704565b6101f7610230366004611c4c565b610743565b6101bb610243366004611d9e565b600160a060020a031660009081526020819052604090205490565b6101f76108ba565b6101f7610274366004611c4c565b610a19565b6101f7610287366004611d9e565b610b14565b610187610c4e565b6101f76102a2366004611dbb565b610c5d565b6101bb610c80565b6101a76102bd366004611bdf565b610c8f565b6101a76102d0366004611e14565b610d45565b6101bb6102e3366004611e14565b600160a060020a03918216600090815260086020908152604080832093909416825291909152205490565b6101f761031c366004611d9e565b610de7565b6101f761032f366004611e4d565b610f22565b6101f7610342366004611ecd565b610f5d565b6060600480548060200260200160405190810160405280929190818152602001828054801561039f57602002820191906000526020600020905b8154600160a060020a03168152600190910190602001808311610381575b5050505050905090565b6060600280546103b890611f14565b80601f01602080910402602001604051908101604052809291908181526020018280546103e490611f14565b801561039f5780601f106104065761010080835404028352916020019161039f565b820191906000526020600020905b81548152906001019060200180831161041457509395945050505050565b600033610440818585610f78565b5060019392505050565b6000600160a060020a03831661047e5760405160e560020a62461bcd02815260040161047590611f52565b60405180910390fd5b600160a060020a0384166104fd5760405160e560020a62461bcd02815260206004820152602660248201527f4552433737373a207472616e736665722066726f6d20746865207a65726f206160448201527f64647265737300000000000000000000000000000000000000000000000000006064820152608401610475565b600033905061052e8186868660405180602001604052806000815250604051806020016040528060008152506110d7565b610539858285611231565b6105658186868660405180602001604052806000815250604051806020016040528060008152506112c0565b610593818686866040518060200160405280600081525060405180602001604052806000815250600061143f565b506001949350505050565b600080600d546105ad60015490565b6105b79190611fc8565b9050806105c657600091505090565b6000600e54600c546105d89190611fc8565b6105e6836305f5e100611fdf565b6105f09190611ffe565b905060006105fc611649565b90508082101561060a578091505b5092915050565b600a54600160a060020a0316331461066e5760405160e560020a62461bcd02815260206004820152600d60248201527f4163636573732044656e696564000000000000000000000000000000000000006044820152606401610475565b600954600a546040517fa9059cbb000000000000000000000000000000000000000000000000000000008152600160a060020a0391821660048201526024810184905291169063a9059cbb906044016020604051808303816000875af11580156106dc573d6000803e3d6000fd5b505050506040513d601f19601f820116820180604052508101906107009190612023565b5050565b61070e3386610d45565b61072d5760405160e560020a62461bcd02815260040161047590612045565b61073c858585858560016116db565b5050505050565b6107703361dead836040518060200160405280600081525060405180602001604052806000815250610704565b6000600d5461077e60015490565b6107889190611fc8565b90506000600e54600c5461079c9190611fc8565b6107aa83633b9aca00611fdf565b6107b49190611ffe565b905060006107c0611649565b6107cb90600a611fdf565b9050808210156107d9578091505b60006107e58386611ffe565b6107f390633b9aca00611fdf565b6009546040517fa9059cbb00000000000000000000000000000000000000000000000000000000815233600482015260248101839052919250600160a060020a03169063a9059cbb906044016020604051808303816000875af115801561085e573d6000803e3d6000fd5b505050506040513d601f19601f820116820180604052508101906108829190612023565b5084600d600082825461089591906120a2565b9250508190555080600e60008282546108ae91906120a2565b90915550505050505050565b600a54600160a060020a031633146109175760405160e560020a62461bcd02815260206004820152600d60248201527f4163636573732044656e696564000000000000000000000000000000000000006044820152606401610475565b600954600a546040517f70a08231000000000000000000000000000000000000000000000000000000008152306004820152600160a060020a039283169263a9059cbb92169083906370a0823190602401602060405180830381865afa158015610985573d6000803e3d6000fd5b505050506040513d601f19601f820116820180604052508101906109a991906120ba565b60405160e060020a63ffffffff8516028152600160a060020a03909216600483015260248201526044016020604051808303816000875af11580156109f2573d6000803e3d6000fd5b505050506040513d601f19601f82011682018060405250810190610a169190612023565b50565b6009546040517f23b872dd00000000000000000000000000000000000000000000000000000000815233600482015230602482015260448101839052600160a060020a03909116906323b872dd906064016020604051808303816000875af1158015610a89573d6000803e3d6000fd5b505050506040513d601f19601f82011682018060405250810190610aad9190612023565b5080600c6000828254610ac091906120a2565b9091555060009050610ad0611649565b610ade836305f5e100611fdf565b610ae89190611ffe565b9050610700338260405180602001604052806000815250604051806020016040528060008152506117df565b33600160a060020a0382161415610b955760405160e560020a62461bcd028152602060048201526024808201527f4552433737373a20617574686f72697a696e672073656c66206173206f70657260448201527f61746f72000000000000000000000000000000000000000000000000000000006064820152608401610475565b600160a060020a03811660009081526005602052604090205460ff1615610be657336000908152600760209081526040808320600160a060020a03851684529091529020805460ff19169055610c15565b336000908152600660209081526040808320600160a060020a03851684529091529020805460ff191660011790555b6040513390600160a060020a038316907ff4caeb2d6ca8932a215a353d0703c326ec2d81fc68170f320eb2ab49e9df61f990600090a350565b6060600380546103b890611f14565b610c7b338484846040518060200160405280600081525060016116db565b505050565b6000610c8a611649565b905090565b6000600160a060020a038316610cba5760405160e560020a62461bcd02815260040161047590611f52565b6000339050610ceb8182868660405180602001604052806000815250604051806020016040528060008152506110d7565b610d178182868660405180602001604052806000815250604051806020016040528060008152506112c0565b610440818286866040518060200160405280600081525060405180602001604052806000815250600061143f565b600081600160a060020a031683600160a060020a03161480610db05750600160a060020a03831660009081526005602052604090205460ff168015610db05750600160a060020a0380831660009081526007602090815260408083209387168352929052205460ff16155b80610de05750600160a060020a0380831660009081526006602090815260408083209387168352929052205460ff165b9392505050565b600160a060020a038116331415610e695760405160e560020a62461bcd02815260206004820152602160248201527f4552433737373a207265766f6b696e672073656c66206173206f70657261746f60448201527f72000000000000000000000000000000000000000000000000000000000000006064820152608401610475565b600160a060020a03811660009081526005602052604090205460ff1615610ebd57336000908152600760209081526040808320600160a060020a03851684529091529020805460ff19166001179055610ee9565b336000908152600660209081526040808320600160a060020a03851684529091529020805460ff191690555b6040513390600160a060020a038316907f50546e66e5f44d728365dc3908c63bc5cfeeab470722c1677e3073a6ac294aa190600090a350565b610f2c3385610d45565b610f4b5760405160e560020a62461bcd02815260040161047590612045565b610f57848484846117ed565b50505050565b610700338383604051806020016040528060008152506117ed565b600160a060020a038316610ff75760405160e560020a62461bcd02815260206004820152602560248201527f4552433737373a20617070726f76652066726f6d20746865207a65726f20616460448201527f64726573730000000000000000000000000000000000000000000000000000006064820152608401610475565b600160a060020a0382166110765760405160e560020a62461bcd02815260206004820152602360248201527f4552433737373a20617070726f766520746f20746865207a65726f206164647260448201527f65737300000000000000000000000000000000000000000000000000000000006064820152608401610475565b600160a060020a0383811660008181526008602090815260408083209487168084529482529182902085905590518481527f8c5be1e5ebec7d5bd14f71427d1e84f3dd0314c0f7b2291e5b200ac8c7c3b925910160405180910390a3505050565b6040517faabbb8ca000000000000000000000000000000000000000000000000000000008152600160a060020a03861660048201527f29ddb589b1fb5fc7cf394961c1adf5f8c6454761adf795e67fe149f658abe8956024820152600090731820a4b7618bde71dce8cdc73aab6c95905fad249063aabbb8ca90604401602060405180830381865afa158015611171573d6000803e3d6000fd5b505050506040513d601f19601f8201168201806040525081019061119591906120d3565b9050600160a060020a03811615611228576040517f75ab9782000000000000000000000000000000000000000000000000000000008152600160a060020a038216906375ab9782906111f5908a908a908a908a908a908a906004016120f0565b600060405180830381600087803b15801561120f57600080fd5b505af1158015611223573d6000803e3d6000fd5b505050505b50505050505050565b600160a060020a038381166000908152600860209081526040808320938616835292905220546000198114610f5757818110156112b35760405160e560020a62461bcd02815260206004820152601e60248201527f4552433737373a20696e73756666696369656e7420616c6c6f77616e636500006044820152606401610475565b610f578484848403610f78565b600160a060020a038516600090815260208190526040902054838110156113525760405160e560020a62461bcd02815260206004820152602760248201527f4552433737373a207472616e7366657220616d6f756e7420657863656564732060448201527f62616c616e6365000000000000000000000000000000000000000000000000006064820152608401610475565b600160a060020a038087166000908152602081905260408082208785039055918716815290812080548692906113899084906120a2565b9250508190555084600160a060020a031686600160a060020a031688600160a060020a03167f06b541ddaa720db2b10a4d0cdac39b8d360425fc073085fac19bc826146779878787876040516113e193929190612149565b60405180910390a484600160a060020a031686600160a060020a03167fddf252ad1be2c89b69c2b068fc378daa952ba7f163c4a11628f55a4df523b3ef8660405161142e91815260200190565b60405180910390a350505050505050565b6040517faabbb8ca000000000000000000000000000000000000000000000000000000008152600160a060020a03861660048201527fb281fc8c12954d22544db45de3159a39272895b169a852b314f9cc762e44c53b6024820152600090731820a4b7618bde71dce8cdc73aab6c95905fad249063aabbb8ca90604401602060405180830381865afa1580156114d9573d6000803e3d6000fd5b505050506040513d601f19601f820116820180604052508101906114fd91906120d3565b9050600160a060020a03811615611592576040517e23de29000000000000000000000000000000000000000000000000000000008152600160a060020a038216906223de299061155b908b908b908b908b908b908b906004016120f0565b600060405180830381600087803b15801561157557600080fd5b505af1158015611589573d6000803e3d6000fd5b5050505061163f565b811561163f57600160a060020a0386163b1561163f5760405160e560020a62461bcd02815260206004820152604d60248201527f4552433737373a20746f6b656e20726563697069656e7420636f6e747261637460448201527f20686173206e6f20696d706c656d656e74657220666f7220455243373737546f60648201527f6b656e73526563697069656e7400000000000000000000000000000000000000608482015260a401610475565b5050505050505050565b600080600080600080600b60009054906101000a9004600160a060020a0316600160a060020a031663feaf968c6040518163ffffffff1660e060020a02815260040160a060405180830381865afa1580156116a8573d6000803e3d6000fd5b505050506040513d601f19601f820116820180604052508101906116cc919061219d565b50919998505050505050505050565b600160a060020a03861661175a5760405160e560020a62461bcd02815260206004820152602260248201527f4552433737373a2073656e642066726f6d20746865207a65726f20616464726560448201527f73730000000000000000000000000000000000000000000000000000000000006064820152608401610475565b600160a060020a0385166117b35760405160e560020a62461bcd02815260206004820181905260248201527f4552433737373a2073656e6420746f20746865207a65726f20616464726573736044820152606401610475565b336117c28188888888886110d7565b6117d08188888888886112c0565b6112288188888888888861143f565b610f578484848460016119dd565b600160a060020a03841661186c5760405160e560020a62461bcd02815260206004820152602260248201527f4552433737373a206275726e2066726f6d20746865207a65726f20616464726560448201527f73730000000000000000000000000000000000000000000000000000000000006064820152608401610475565b3361187c818660008787876110d7565b600160a060020a0385166000908152602081905260409020548481101561190e5760405160e560020a62461bcd02815260206004820152602360248201527f4552433737373a206275726e20616d6f756e7420657863656564732062616c6160448201527f6e636500000000000000000000000000000000000000000000000000000000006064820152608401610475565b600160a060020a038616600090815260208190526040812086830390556001805487929061193d908490611fc8565b9250508190555085600160a060020a031682600160a060020a03167fa78a9be3a7b862d26933ad85fb11d80ef66b8f972d7cbba06621d583943a409887878760405161198b93929190612149565b60405180910390a3604051858152600090600160a060020a038816907fddf252ad1be2c89b69c2b068fc378daa952ba7f163c4a11628f55a4df523b3ef906020015b60405180910390a3505050505050565b600160a060020a038516611a365760405160e560020a62461bcd02815260206004820181905260248201527f4552433737373a206d696e7420746f20746865207a65726f20616464726573736044820152606401610475565b60003390508460016000828254611a4d91906120a2565b9091555050600160a060020a03861660009081526020819052604081208054879290611a7a9084906120a2565b90915550611a909050816000888888888861143f565b85600160a060020a031681600160a060020a03167f2fe5be0146f74c5bce36c0b80911af6c7d86ff27e89d5cfa61fc681327954e5d878787604051611ad793929190612149565b60405180910390a3604051858152600160a060020a038716906000907fddf252ad1be2c89b69c2b068fc378daa952ba7f163c4a11628f55a4df523b3ef906020016119cd565b6020808252825182820181905260009190848201906040850190845b81811015611b5e578351600160a060020a031683529284019291840191600101611b39565b50909695505050505050565b6000815180845260005b81811015611b9057602081850181015186830182015201611b74565b81811115611ba2576000602083870101525b50601f01601f19169290920160200192915050565b602081526000610de06020830184611b6a565b600160a060020a0381168114610a1657600080fd5b60008060408385031215611bf257600080fd5b8235611bfd81611bca565b946020939093013593505050565b600080600060608486031215611c2057600080fd5b8335611c2b81611bca565b92506020840135611c3b81611bca565b929592945050506040919091013590565b600060208284031215611c5e57600080fd5b5035919050565b60e060020a634e487b7102600052604160045260246000fd5b600082601f830112611c8f57600080fd5b813567ffffffffffffffff80821115611caa57611caa611c65565b604051601f8301601f19908116603f01168101908282118183101715611cd257611cd2611c65565b81604052838152866020858801011115611ceb57600080fd5b836020870160208301376000602085830101528094505050505092915050565b600080600080600060a08688031215611d2357600080fd5b8535611d2e81611bca565b94506020860135611d3e81611bca565b935060408601359250606086013567ffffffffffffffff80821115611d6257600080fd5b611d6e89838a01611c7e565b93506080880135915080821115611d8457600080fd5b50611d9188828901611c7e565b9150509295509295909350565b600060208284031215611db057600080fd5b8135610de081611bca565b600080600060608486031215611dd057600080fd5b8335611ddb81611bca565b925060208401359150604084013567ffffffffffffffff811115611dfe57600080fd5b611e0a86828701611c7e565b9150509250925092565b60008060408385031215611e2757600080fd5b8235611e3281611bca565b91506020830135611e4281611bca565b809150509250929050565b60008060008060808587031215611e6357600080fd5b8435611e6e81611bca565b935060208501359250604085013567ffffffffffffffff80821115611e9257600080fd5b611e9e88838901611c7e565b93506060870135915080821115611eb457600080fd5b50611ec187828801611c7e565b91505092959194509250565b60008060408385031215611ee057600080fd5b82359150602083013567ffffffffffffffff811115611efe57600080fd5b611f0a85828601611c7e565b9150509250929050565b600281046001821680611f2857607f821691505b60208210811415611f4c5760e060020a634e487b7102600052602260045260246000fd5b50919050565b60208082526024908201527f4552433737373a207472616e7366657220746f20746865207a65726f2061646460408201527f7265737300000000000000000000000000000000000000000000000000000000606082015260800190565b60e060020a634e487b7102600052601160045260246000fd5b600082821015611fda57611fda611faf565b500390565b6000816000190483118215151615611ff957611ff9611faf565b500290565b60008261201e5760e060020a634e487b7102600052601260045260246000fd5b500490565b60006020828403121561203557600080fd5b81518015158114610de057600080fd5b6020808252602c908201527f4552433737373a2063616c6c6572206973206e6f7420616e206f70657261746f60408201527f7220666f7220686f6c6465720000000000000000000000000000000000000000606082015260800190565b600082198211156120b5576120b5611faf565b500190565b6000602082840312156120cc57600080fd5b5051919050565b6000602082840312156120e557600080fd5b8151610de081611bca565b6000600160a060020a038089168352808816602084015280871660408401525084606083015260c0608083015261212a60c0830185611b6a565b82810360a084015261213c8185611b6a565b9998505050505050505050565b8381526060602082015260006121626060830185611b6a565b82810360408401526121748185611b6a565b9695505050505050565b805169ffffffffffffffffffff8116811461219857600080fd5b919050565b600080600080600060a086880312156121b557600080fd5b6121be8661217e565b94506020860151935060408601519250606086015191506121e16080870161217e565b9050929550929590935056fea2646970667358221220092e0333cec2ce66a818f6daef06e38c9aa252b32162e7aa502a9348bd3cf62b64736f6c634300080a0033",
  "immutableReferences": {},
  "source": "// SPDX-License-Identifier: MIT\npragma solidity ^0.8.0;\n\nimport \"@openzeppelin/contracts/token/ERC777/ERC777.sol\";\nimport \"@openzeppelin/contracts/token/ERC20/IERC20.sol\";\nimport \"@chainlink/contracts/src/v0.8/interfaces/AggregatorV3Interface.sol\";\n\ncontract MyToken is ERC777 {\n\t// IERC20 Interface lets us call IERC20 functions in other ERC20 contracts\n\t// TODO: Replace Address here with the token address you're targetting\n\tIERC20 otherToken = IERC20(address(0xfe4F5145f6e09952a5ba9e956ED0C25e3Fa4c7F1));\n\n\t// Owner of the contract\n\taddress private owner;\n\n\t// Chainlink pricefeed\n\tAggregatorV3Interface internal priceFeed;\n\n\t// TODO: Replace Token Name and Symbol\n\tconstructor() ERC777(\"MyTokenVersion2\", \"MT_V2\", address(this)) {\n\t\towner = msg.sender; // Set Deployer Address as the Owner\n\t\tpriceFeed = AggregatorV3Interface(0xd0D5e3DB44DE05E9F294BB0a3bEEaF030DE24Ada); // TODO: Change to HBAR/USD -> 0x38C5ae3ee324ee027D88c5117ee58d07c9b4699b\n\t}\n\n\tuint private otherTokenDeposited;\n\tfunction swap(uint256 amount) public {\n\t\totherToken.transferFrom(msg.sender, address(this), amount); // Transfer tokens from caller account to THIS Contract\n\n\t\t// Update Amount of USDT Received\n\t\totherTokenDeposited += amount;\n\n\t\t// Mint New Tokens\n\t\tuint amountBasedOnFeed = (amount * 100000000) / getLatestPrice();\n\t\t_mint(msg.sender, amountBasedOnFeed, \"\", \"\");\n\t}\n\n\t// Modifier to restrict access to Owner\n\tmodifier onlyOwner() {\n\t\trequire(msg.sender == owner, \"Access Denied\");\n\t\t_;\n\t}\n\n\t// Function to withdraw\n\t// Only Owner can call it\n\t// Transfers a specific amount to Owner's account\n\tfunction withdraw(uint256 amount) public onlyOwner {\n\t\totherToken.transfer(owner, amount); // Transfer from THIS Contract to Owner\n\t}\n\n\t// Function to withdraw entire token balance\n\t// Only Owner can call it\n\t// address(this) returns the Contract Address\n\t// Transfers the entire balance to Owner's account\n\tfunction withdrawAll() public onlyOwner {\n\t\totherToken.transfer(owner, otherToken.balanceOf(address(this))); // Transfer entire token balance of THIS Contract to Owner\n\t}\n\n\t// Burn Function\n\tuint private tokensBurnt;\n\tuint private otherTokenWithdrawn;\n\tfunction burnTokens(uint256 amount) public {\n\t\toperatorSend(msg.sender, 0x000000000000000000000000000000000000dEaD, amount, \"\", \"\"); // Send the tokens to DEAD Address\n\n\t\tuint tokensInCirculation = totalSupply() - tokensBurnt;\n\n\t\t// burnPrice initially set to pool index | if less than market price then it's sent to market price\n\t\tuint burnPrice = (tokensInCirculation * 1000000000) / (otherTokenDeposited - otherTokenWithdrawn);\n\t\tuint marketPrice = getLatestPrice() * 10;\n\t\tif (burnPrice < marketPrice) burnPrice = marketPrice;\n\n\t\tuint otherTokenAmount = (amount / burnPrice) * 1000000000;\n\t\totherToken.transfer(msg.sender, otherTokenAmount); \t\t\t\t\t\t\t\t\t\t\t\t\t\t\t\t\t\t// Transfer from THIS Contract to sender\n\t\t\n\n\t\t// Update records\n\t\ttokensBurnt += amount;\n\t\totherTokenWithdrawn += otherTokenAmount;\n\t}\n\n\tfunction getBurnPrice() public view returns (uint) {\n\t\tuint tokensInCirculation = totalSupply() - tokensBurnt;\n\t\tif (tokensInCirculation == 0) return 0;\n\n\t\t// burnPrice initially set to pool index | if less than market price then it's sent to market price\n\t\tuint burnPrice = (tokensInCirculation * 100000000) / (otherTokenDeposited - otherTokenWithdrawn);\n\t\tuint marketPrice = getLatestPrice();\n\t\tif (burnPrice < marketPrice) burnPrice = marketPrice;\n\n\t\treturn burnPrice;\n\t}\n\n\tfunction getMintPrice() public view returns (uint) {\n\t\treturn getLatestPrice();\n\t}\n\n\tfunction getLatestPrice() internal view returns (uint) {\n\t\t(\n\t\t\tuint80 _roundID,\n\t\t\tint price,\n\t\t\tuint _startedAt,\n\t\t\tuint _timeStamp,\n\t\t\tuint80 _answeredInRound\n\t\t) = priceFeed.latestRoundData();\n\t\treturn uint(price);\n\t}\n}",
  "sourcePath": "C:\\Users\\debuj\\Desktop\\fiverr_wrappable2\\onchain\\contracts\\MyToken.sol",
  "compiler": {
    "name": "solc",
    "version": "0.8.10+commit.fc410830.Emscripten.clang"
  },
  "schemaVersion": "3.4.3",
  "updatedAt": "2022-04-25T12:04:00.741Z",
  "networkType": "ethereum",
  "devdoc": {
    "kind": "dev",
    "methods": {
      "allowance(address,address)": {
        "details": "See {IERC20-allowance}. Note that operator and allowance concepts are orthogonal: operators may not have allowance, and accounts with allowance may not be operators themselves."
      },
      "approve(address,uint256)": {
        "details": "See {IERC20-approve}. NOTE: If `value` is the maximum `uint256`, the allowance is not updated on `transferFrom`. This is semantically equivalent to an infinite approval. Note that accounts cannot have allowance issued by their operators."
      },
      "authorizeOperator(address)": {
        "details": "See {IERC777-authorizeOperator}."
      },
      "balanceOf(address)": {
        "details": "Returns the amount of tokens owned by an account (`tokenHolder`)."
      },
      "burn(uint256,bytes)": {
        "details": "See {IERC777-burn}. Also emits a {IERC20-Transfer} event for ERC20 compatibility."
      },
      "decimals()": {
        "details": "See {ERC20-decimals}. Always returns 18, as per the [ERC777 EIP](https://eips.ethereum.org/EIPS/eip-777#backward-compatibility)."
      },
      "defaultOperators()": {
        "details": "See {IERC777-defaultOperators}."
      },
      "granularity()": {
        "details": "See {IERC777-granularity}. This implementation always returns `1`."
      },
      "isOperatorFor(address,address)": {
        "details": "See {IERC777-isOperatorFor}."
      },
      "name()": {
        "details": "See {IERC777-name}."
      },
      "operatorBurn(address,uint256,bytes,bytes)": {
        "details": "See {IERC777-operatorBurn}. Emits {Burned} and {IERC20-Transfer} events."
      },
      "operatorSend(address,address,uint256,bytes,bytes)": {
        "details": "See {IERC777-operatorSend}. Emits {Sent} and {IERC20-Transfer} events."
      },
      "revokeOperator(address)": {
        "details": "See {IERC777-revokeOperator}."
      },
      "send(address,uint256,bytes)": {
        "details": "See {IERC777-send}. Also emits a {IERC20-Transfer} event for ERC20 compatibility."
      },
      "symbol()": {
        "details": "See {IERC777-symbol}."
      },
      "totalSupply()": {
        "details": "See {IERC777-totalSupply}."
      },
      "transfer(address,uint256)": {
        "details": "See {IERC20-transfer}. Unlike `send`, `recipient` is _not_ required to implement the {IERC777Recipient} interface if it is a contract. Also emits a {Sent} event."
      },
      "transferFrom(address,address,uint256)": {
        "details": "See {IERC20-transferFrom}. NOTE: Does not update the allowance if the current allowance is the maximum `uint256`. Note that operator and allowance concepts are orthogonal: operators cannot call `transferFrom` (unless they have allowance), and accounts with allowance cannot call `operatorSend` (unless they are operators). Emits {Sent}, {IERC20-Transfer} and {IERC20-Approval} events."
      }
    },
    "version": 1
  },
  "userdoc": {
    "kind": "user",
    "methods": {},
    "version": 1
  }
}